:04000000BBEF10F052
:1000080000C018F00BC017F00CC016F00DC015F0AA
:100018009EAA69D0AECFF2F09E9A3FD0030E0B6E27
:10002800080E0C6E770E0D6E0D2EFED70C2EFCD71B
:100038000B2EFAD7AB9EAB98AB8EAB8854D0AB9E49
:10004800AB98AB8EAB884FD0010E0001C96FDC2B8B
:100058004AD0020EC96F47D0030EC96F44D0040EB0
:10006800C96F41D0050EC96F3ED0060EC96F3BD08F
:10007800070EC96F38D0080EC96F35D0090EC96F81
:10008800AB9EAB98AB8EAB882ED00A0EC96FAB9ED9
:10009800AB98AB8EAB8827D026D00001F251730AFB
:1000A800BDE0F251200ACBE0F251310ACDE0F25125
:1000B800320ACFE0F251330ACFE0F251340ACFE0EE
:1000C800F251350ACFE0F251360ACFE0F251370A41
:1000D800CFE0F251380ACFE0F2514F0ACFE0F251A7
:1000E800540AD3E0D9D718C000F017C00BF016C0D7
:0800F8000CF015C00DF0110021
:0A010000210E0D6E0D2EFED7120029
:10010A000F0E0C6E470E0D6E0D2EFED70C2EFCD761
:06011A00000000001200CD
:06012000000000001200C7
:10012600010124BF02D0839E01D0838E24BD02D05C
:10013600839C01D0838C24BB02D0839A01D0838A0E
:1001460024B902D0839801D083880001DAB102D0A5
:10015600848001D084908482E0DF8492010124B7F8
:1001660002D0839E01D0838E24B502D0839C01D019
:10017600838C24B302D0839A01D0838A24B102D01F
:10018600839801D083880001DAB102D0848001D03F
:1001960084908482C2DF8492DAA102D0B3DF01D0D8
:0401A600ACDF1200B8
:0C01AA000E0E0D6E0D2EFED70000120090
:1001B60010D0800E0101216F1AD0C00E216F17D00A
:1001C600940E216F14D0D40E216F11D0800E216FA2
:1001D6000ED001012151010AECE02151020AEDE0A5
:1001E6002151030AEDE02151040AEDE0EFD7220583
:1001F600006E2151002600C021F10001DA8100C005
:1002060024F18EDFDA9123C124F18ADFDA8112002C
:10021600400E006E1F0E016E000E026E036E12007F
:0E0226000001DA9121C124F17BDFDA811200A0
:10023400C26A070EC012C08E21C100F000360090C1
:10024400003600900050C212C280ADDFC282C2A24A
:1002540001D0FDD7C4CF01F0006AC3500012000ED4
:060264000112C29012001D
:10026A000B6A0A6A096A086A0E6A03340836045075
:10027A00085E0550D8A0053C095E0650D8A0063C89
:10028A000A5E0750D8A0073C0B5EE86AD8A0010EA8
:10029A000E5E0336070E0C6E0334083609360A362C
:1002AA000B360E36045003A012D0085E0550D8A0B3
:1002BA00053C095E0650D8A0063C0A5E0750D8A045
:1002CA00073C0B5EE86AD8A0010E0E5E11D0082624
:1002DA000550D8B0053C09260650D8B0063C0A2677
:1002EA000750D8B0073C0B26E86AD8B0010E0E2694
:1002FA0003360C2ED1D70234083609360A360B36A5
:10030A000E36045003A012D0085E0550D8A0053C52
:10031A00095E0650D8A0063C0A5E0750D8A0073CE2
:10032A000B5EE86AD8A0010E0E5E11D008260550B1
:10033A00D8B0053C09260650D8B0063C0A26075014
:10034A00D8B0073C0B26E86AD8B0010E0E26023652
:10035A00070E0C6E0234083609360A360B360E368C
:10036A00045002A012D0085E0550D8A0053C095ED0
:10037A000650D8A0063C0A5E0750D8A0073C0B5E80
:10038A00E86AD8A0010E0E5E11D008260550D8B032
:10039A00053C09260650D8B0063C0A260750D8B0B4
:1003AA00073C0B26E86AD8B0010E0E2602360C2E40
:1003BA00D1D70134083609360A360B360E360450C0
:1003CA0002A012D0085E0550D8A0053C095E06506E
:1003DA00D8A0063C0A5E0750D8A0073C0B5EE86A24
:1003EA00D8A0010E0E5E11D008260550D8B0053CE3
:1003FA0009260650D8B0063C0A260750D8B0073C52
:10040A000B26E86AD8B0010E0E260136070E0C6ECE
:10041A000134083609360A360B360E36045001A066
:10042A0012D0085E0550D8A0053C095E0650D8A037
:10043A00063C0A5E0750D8A0073C0B5EE86AD8A0C3
:10044A00010E0E5E11D008260550D8B0053C0926CB
:10045A000650D8B0063C0A260750D8B0073C0B26EF
:10046A00E86AD8B0010E0E2601360C2ED1D7003418
:10047A00083609360A360B360E36045001A012D059
:10048A00085E0550D8A0053C095E0650D8A0063C77
:10049A000A5E0750D8A0073C0B5EE86AD8A0010E96
:1004AA000E5E11D008260550D8B0053C0926065024
:1004BA00D8B0063C0A260750D8B0073C0B26E86A93
:1004CA00D8B0010E0E260036070E0C6E0034083620
:1004DA0009360A360B360E36045000A012D0085ED2
:1004EA000550D8A0053C095E0650D8A0063C0A5E15
:1004FA000750D8A0073C0B5EE86AD8A0010E0E5E32
:10050A0011D008260550D8B0053C09260650D8B0A7
:10051A00063C0A260750D8B0073C0B26E86AD8B032
:10052A00010E0E2600360C2ED1D700B00ED0045084
:10053A0008260550D8B0053C09260650D8B0063C16
:0C054A000A260750D8B0073C0B26120010
:1005560001012107210721C101F0210701500008EF
:1005660003E200000000F7D70000000000000000D2
:04057600000012006F
:10057A00086A096A100E0C6E0134083609360450EE
:10058A00085E0550D8A0053C095ED8B007D00450D3
:10059A0008260550D8B0053C0926D8900036013601
:0605AA000C2EEAD712003E
:1005B000220E0C6E086A096A0A6A0B6A0C06D8B425
:1005C0001FD0D8900B320A3209320832033202327D
:1005D00001320032D8A0F2D70C06D8B409D00450AA
:1005E00008260550092206500A2207500B22EAD796
:1005F000045008260550092206500A2207500B22F3
:020600001200E6
:10060200400E0101246F8EDD0101176B175107089F
:1006120012E3E90E1725F66E230EF76E000EF7228F
:10062200000EF86E000EF8220900F5CF21F1FADD76
:100632000101172BEBD7020E246F74DD15C121F1D6
:0C06420016C122F10101236BB5DD12008E
:10064E0010D0800E0101156F1AD0C00E156F17D085
:10065E00940E156F14D0D40E156F11D0800E156F29
:10066E000ED001011551010AECE01551020AEDE020
:10067E001551030AEDE01551040AEDE0EFD716050A
:10068E00006E1551002600C015F100C024F144DDA6
:10069E00DA910101196B19511725E96E000E182117
:1006AE00EA6EEE520CE019511725E96E000E182174
:1006BE00EA6EEECF21F1B0DD0101192BECD700016E
:0406CE00DA811200BB
:1006D2000101166B176B186B196B156B640E155DA8
:1006E2000DE2030E216FA5DD005001011627015016
:1006F2001723000E18231923152BF0D7640E046E4E
:10070200000E056E066E076E16C100F017C101F0ED
:0C07120018C102F019C103F0A7DD1200AD
:10071E000134083609360450085E0550D8A0053C51
:10072E00095E003601360F0E0C6E0134083609369E
:10073E00045000A006D0085E0550D8A0053C095E06
:10074E0005D008260550D8B0053C092600360136DE
:10075E000C2EEBD700B006D0045008260550D8B0AA
:08076E00053C09260000120001
:100776004FDDE80E046E030E056E000E066E076E64
:1007860014DF00C01DF101C01EF102C01FF103C03D
:1007960020F115C104F016C105F0000E066E076EB5
:1007A60061DD00C01DF101C01EF102C01FF103C0D2
:1007B60020F100C005F001C006F002C007F003C03A
:1007C60008F00832073206320532089E0832073230
:1007D60006320532089E05C000F006C001F007C0CB
:1007E60002F008C003F00332023201320032039EE7
:1007F60000C019F101C01AF10BDD17C104F018C1D0
:1008060005F0000E066E076ED0DE19C109F01AC19A
:100816000AF0000E0B6E0C6E030E086E09C004F093
:100826000AC005F00BC006F00CC007F0085007E040
:1008360004360490053606360736FF0FF8D712DD64
:1008460000C01DF101C01EF102C01FF103C020F15E
:100856000A0E046E000E056E19C100F01AC101F0F1
:1008660089DE00C019F101C01AF1000E015C02E137
:10087600030E005C01E247D0D6C0E9FFD7C0EAFF0D
:1008860001012051000808E11F51000805E11E5131
:10089600000802E11D51000833E20001F651EF1293
:1008A60001011A530DE01B6B1C6B000E1C5D02E16F
:1008B6001A511B5D05E2216B4BDE1B4B1C2BF5D73A
:1008C60019C121F145DE0001E551EF1601011A5368
:1008D6000DE01B6B1C6B000E1C5D02E11A511B5DCB
:1008E60005E2216B35DE1B4B1C2BF5D719C121F117
:1008F6002FDE010E1D5F000E1E5B1F5B205BC0D747
:080906000001E551EF1612009B
:10090E00E1DE00C0D2F001C0D3F002C0D4F003C0CB
:10091E00D5F0050E046E000E056E066E076E41DEF6
:10092E00640E046E000E056E066E076E3ADEFF0E46
:10093E00046E030E056E000E066E076E8FDC00C091
:10094E00CCF001C0CDF002C0CEF003C0CFF00A0E45
:10095E00046E000E056E066E076E80DC00C0CBF0D6
:10096E000A0E046E000E056E066E076ECCC000F009
:10097E00CDC001F0CEC002F0CFC003F06FDC08C0D6
:10098E0000F009C001F00AC002F00BC003F000C075
:10099E00CAF0D2C000F0D3C001F0D4C002F0D5C06E
:1009AE0003F0050E046E000E056E066E076EF9DD81
:1009BE00640E046E000E056E066E076EF2DDFF0EFF
:1009CE00046E030E056E000E066E076E47DC08C041
:1009DE0000F009C001F00AC002F00BC003F00A0ECD
:1009EE00046E000E056E066E076EDBDD00C010F1A4
:1009FE0001C011F102C012F103C013F1FF0E046E1B
:100A0E00030E056E000E066E076E10C100F011C1CA
:100A1E0001F012C102F013C103F020DC00C0D1F0CE
:100A2E00FF0E046E030E056E000E066E076E10C1ED
:100A3E0000F011C101F012C102F013C103F00EDC7F
:100A4E0008C000F009C001F00AC002F00BC003F0AC
:100A5E000A0E046E000E056E066E076EA2DDFF0E08
:100A6E00046E030E056E000E066E076E35EC01F079
:100A7E0000C0D0F0020E156F050E166F190E176F0F
:100A8E00000E186FDDDD020E0101216F060E226FC2
:100A9E00300E0001CB250101236FDBEC00F0300E90
:100AAE00CA250101216F13EC01F02E0E0101216FF9
:100ABE0013EC01F0300ED1250101216F13EC01F082
:100ACE00300ED0250101216F13EC01F0020E010151
:100ADE00156F0B0E166F8EDD020E0101156F0C0ECB
:100AEE00166FA80E176F000E186FAADD030E0B6E91
:100AFE008A0E0C6E550E0D6E0D2EFED70C2EFCD7DB
:0A0B0E000B2EFAD7000000001200C1
:0E0B1800ACB202D00000FCD710C1ADFF12003D
:100B2600010E0101156F030E166F10C117F111C1E9
:100B360018F18ADD020E0101156F070E166F12C13C
:100B460017F113C118F180DD0B0E0B6E260E0C6E1D
:100B56005D0E0D6E0D2EFED70C2EFCD70B2EFAD782
:100B6600000000000101146B030E145D15E21C0E5B
:100B7600246F93EC00F0060E0B6E130E0C6EAD0E8A
:100B86000D6E0D2EFED70C2EFCD70B2EFAD70000BD
:0A0B960000000101142BE8D7120043
:100BA000DC0E0101156F000E166F900E176F010E0F
:100BB000186FE1DD050E0B6E120E0C6E890E0D6EB8
:100BC0000D2EFED70C2EFCD70B2EFAD700000000FE
:100BD000DC0E0101156F000E166F900E176F010EDF
:100BE000186FC9DD050E0B6E120E0C6E890E0D6EA0
:100BF0000D2EFED70C2EFCD70B2EFAD700000000CE
:100C0000DC0E0101156F000E166F900E176F010EAE
:100C1000186FB1DD050E0B6E120E0C6E890E0D6E87
:100C20000D2EFED70C2EFCD70B2EFAD7000000009D
:100C3000AE0E0101156F000E166F2C0E176F010E10
:100C4000186F99DD040E0B6E0E0E0C6ECD0E0D6E30
:100C50000D2EFED70C2EFCD70B2EFAD7050E010158
:100C6000156F010E166F640E176F000E186F83DD7F
:100C7000020E0B6E070E0C6E530E0D6E0D2EFED770
:100C80000C2EFCD70B2EFAD7DC0E0101156F000ECF
:100C9000166F900E176F010E186F6DDD050E0B6E3F
:100CA000120E0C6E890E0D6E0D2EFED70C2EFCD77B
:100CB0000B2EFAD700000000AE0E0101156F000EDA
:100CC000166F2C0E176F010E186F55DD040E0B6E8C
:100CD0000E0E0C6ECD0E0D6E0D2EFED70C2EFCD70B
:100CE0000B2EFAD7050E0101156F010E166F640E5B
:100CF000176F000E186F3FDD020E0B6E070E0C6EA5
:100D0000530E0D6E0D2EFED70C2EFCD70B2EFAD7E0
:100D1000DC0E0101156F000E166F200E176F030E0B
:100D2000186F29DD090E0B6E210E0C6E7D0E0D6EF7
:100D30000D2EFED70C2EFCD70B2EFAD7490E010133
:100D4000156F010E166F900E176F010E186F13DDE1
:100D5000050E0B6E120E0C6E890E0D6E0D2EFED74B
:100D60000C2EFCD70B2EFAD700000000490E010113
:100D7000156F010E166F900E176F010E186FFBDCCA
:100D8000050E0B6E120E0C6E890E0D6E0D2EFED71B
:100D90000C2EFCD70B2EFAD700000000490E0101E3
:100DA000156F010E166F900E176F010E186FE3DCB2
:100DB000050E0B6E120E0C6E890E0D6E0D2EFED7EB
:100DC0000C2EFCD70B2EFAD7000000005D0E01019F
:100DD000156F010E166F2C0E176F010E186FCBDCFE
:100DE000040E0B6E0E0E0C6ECD0E0D6E0D2EFED77C
:100DF0000C2EFCD70B2EFAD7050E0101156F010E34
:100E0000166F640E176F000E186FB5DC020E0B6EB6
:100E1000070E0C6E530E0D6E0D2EFED70C2EFCD74A
:100E20000B2EFAD7CF0E0101156F000E166F900E24
:100E3000176F010E186F9FDC050E0B6E120E0C6EF5
:100E4000890E0D6E0D2EFED70C2EFCD70B2EFAD769
:100E500000000000AE0E0101156F000E166F2C0E83
:100E6000176F010E186F87DC040E0B6E0E0E0C6EE2
:100E7000CD0E0D6E0D2EFED70C2EFCD70B2EFAD7F5
:100E8000050E0101156F010E166F640E176F000E2F
:100E9000186F71DC020E0B6E070E0C6E530E0D6E8A
:100EA0000D2EFED70C2EFCD70B2EFAD7DC0E01012F
:100EB000156F000E166F200E176F030E186F5BDC98
:100EC000090E0B6E210E0C6E7D0E0D6E0D2EFED7D3
:100ED0000C2EFCD70B2EFAD7B80E0101156F010EA0
:100EE000166F900E176F010E186F45DC050E0B6E16
:100EF000120E0C6E890E0D6E0D2EFED70C2EFCD729
:100F00000B2EFAD700000000DC0E0101156F000E59
:100F1000166F2C0E176F010E186F2DDC040E0B6E62
:100F20000E0E0C6ECD0E0D6E0D2EFED70C2EFCD7B8
:100F30000B2EFAD7DC0E0101156F000E166F640E32
:100F4000176F000E186F17DC020E0B6E070E0C6E7B
:100F5000530E0D6E0D2EFED70C2EFCD70B2EFAD78E
:100F6000B80E0101156F010E166F900E176F010E6E
:100F7000186F01DC050E0B6E120E0C6E890E0D6ED5
:100F80000D2EFED70C2EFCD70B2EFAD7000000003A
:100F90009F0E0101156F010E166F2C0E176F010EBB
:100FA000186FBBEC03F0040E0B6E0E0E0C6ECD0E24
:100FB0000D6E0D2EFED70C2EFCD70B2EFAD7880EF9
:100FC0000101156F010E166F640E176F000E186F7A
:100FD000BBEC03F0020E0B6E070E0C6E530E0D6E83
:100FE0000D2EFED70C2EFCD70B2EFAD7710E010159
:100FF000156F010E166F640E176F000E186FBBECA5
:1010000003F0020E0B6E070E0C6E530E0D6E0D2EBE
:10101000FED70C2EFCD70B2EFAD7490E0101156F07
:10102000010E166F640E176F000E186FBBEC03F005
:10103000020E0B6E070E0C6E530E0D6E0D2EFED7AC
:101040000C2EFCD70B2EFAD75D0E0101156F010E89
:10105000166FC80E176F000E186FBBEC03F0030E6F
:101060000B6E0B0E0C6E0F0E0D6E0D2EFED70C2E92
:10107000FCD70B2EFAD700000000030E0B6E0B0EF0
:101080000C6E0F0E0D6E0D2EFED70C2EFCD70B2EF8
:10109000FAD700000000E90E0101156F000E166F6F
:1010A000C80E176F000E186FBBEC03F0030E0B6E2B
:1010B0000B0E0C6E0F0E0D6E0D2EFED70C2EFCD7E8
:1010C0000B2EFAD700000000370E0101156F010E3C
:1010D000166F900E176F010E186FBBEC03F0050E24
:1010E0000B6E120E0C6E890E0D6E0D2EFED70C2E91
:1010F000FCD70B2EFAD700000000250E0101156F5A
:10110000010E166F2C0E176F010E186FBBEC03F05B
:10111000040E0B6E0E0E0C6ECD0E0D6E0D2EFED748
:101120000C2EFCD70B2EFAD7150E0101156F010EF0
:10113000166F640E176F000E186FBBEC03F0020EF3
:101140000B6E070E0C6E530E0D6E0D2EFED70C2E71
:10115000FCD70B2EFAD7050E0101156F010E166F85
:10116000640E176F000E186FBBEC03F0020E0B6ECF
:10117000070E0C6E530E0D6E0D2EFED70C2EFCD7E7
:101180000B2EFAD7F60E0101156F000E166F640EC6
:10119000176F000E186FBBEC03F0020E0B6E070EFC
:1011A0000C6E530E0D6E0D2EFED70C2EFCD70B2E93
:1011B000FAD7050E0101156F010E166FC80E176FD5
:1011C000000E186FBBEC03F0030E0B6E0B0E0C6ED3
:1011D0000F0E0D6E0D2EFED70C2EFCD70B2EFAD750
:1011E00000000000030E0B6E0B0E0C6E0F0E0D6E4A
:1011F0000D2EFED70C2EFCD70B2EFAD700000000C8
:10120000AE0E0101156F000E166FC80E176F000E9F
:10121000186FBBEC03F0030E0B6E0B0E0C6E0F0E73
:101220000D6E0D2EFED70C2EFCD70B2EFAD700001C
:101230000000CF0E0101156F000E166F900E176F94
:10124000010E186FBBEC03F0050E0B6E120E0C6E48
:10125000890E0D6E0D2EFED70C2EFCD70B2EFAD755
:1012600000000000AE0E0101156F000E166F2C0E6F
:10127000176F010E186FBBEC03F0040E0B6E0E0E11
:101280000C6ECD0E0D6E0D2EFED70C2EFCD70B2E38
:10129000FAD7DC0E0101156F000E166F640E176F82
:1012A000000E186FBBEC03F0020E0B6E070E0C6EF7
:1012B000530E0D6E0D2EFED70C2EFCD70B2EFAD72B
:1012C000050E0101156F010E166F900E176F010EBE
:1012D000186FBBEC03F0050E0B6E120E0C6E890E30
:1012E0000D6E0D2EFED70C2EFCD70B2EFAD700005C
:1012F0000000DC0E0101156F000E166F2C0E176F2B
:10130000010E186FBBEC03F0040E0B6E0E0E0C6E8C
:10131000CD0E0D6E0D2EFED70C2EFCD70B2EFAD750
:10132000050E0101156F010E166F640E176F000E8A
:10133000186FBBEC03F0020E0B6E070E0C6E530E13
:101340000D6E0D2EFED70C2EFCD70B2EFAD7490EA4
:101350000101156F010E166F200E176F030E186F27
:10136000BBEC03F0090E0B6E210E0C6E7D0E0D6EA4
:101370000D2EFED70C2EFCD70B2EFAD7B80E01017E
:10138000156F010E166F900E176F010E186FBBECE4
:1013900003F0050E0B6E120E0C6E890E0D6E0D2EE7
:1013A000FED70C2EFCD70B2EFAD700000000DC0E67
:1013B0000101156F000E166F2C0E176F010E186FBE
:1013C000BBEC03F0040E0B6E0E0E0C6ECD0E0D6E0C
:1013D0000D2EFED70C2EFCD70B2EFAD7DC0E0101FA
:1013E000156F000E166F640E176F000E186FBBECB2
:1013F00003F0020E0B6E070E0C6E530E0D6E0D2ECB
:10140000FED70C2EFCD70B2EFAD7B80E0101156FA4
:10141000010E166F900E176F010E186FBBEC03F0E4
:10142000050E0B6E120E0C6E890E0D6E0D2EFED774
:101430000C2EFCD70B2EFAD7000000009F0E0101E6
:10144000156F010E166F2C0E176F010E186FBBEC87
:1014500003F0040E0B6E0E0E0C6ECD0E0D6E0D2EE7
:10146000FED70C2EFCD70B2EFAD7880E0101156F74
:10147000010E166F640E176F000E186FBBEC03F0B1
:10148000020E0B6E070E0C6E530E0D6E0D2EFED758
:101490000C2EFCD70B2EFAD7710E0101156F010E21
:1014A000166F640E176F000E186FBBEC03F0020E80
:1014B0000B6E070E0C6E530E0D6E0D2EFED70C2EFE
:1014C000FCD70B2EFAD7490E0101156F010E166FCE
:1014D000640E176F000E186FBBEC03F0020E0B6E5C
:1014E000070E0C6E530E0D6E0D2EFED70C2EFCD774
:1014F0000B2EFAD75D0E0101156F010E166FC80E87
:10150000176F000E186FBBEC03F0030E0B6E0B0E83
:101510000C6E0F0E0D6E0D2EFED70C2EFCD70B2E63
:10152000FAD700000000030E0B6E0B0E0C6E0F0EB0
:101530000D6E0D2EFED70C2EFCD70B2EFAD7000009
:101540000000E90E0101156F000E166FC80E176F2F
:10155000000E186FBBEC03F0030E0B6E0B0E0C6E3F
:101560000F0E0D6E0D2EFED70C2EFCD70B2EFAD7BC
:1015700000000000370E0101156F010E166F900E6E
:10158000176F010E186FBBEC03F0050E0B6E120EF9
:101590000C6E890E0D6E0D2EFED70C2EFCD70B2E69
:1015A000FAD700000000250E0101156F010E166F1D
:1015B0002C0E176F010E186FBBEC03F0040E0B6EB0
:1015C0000E0E0C6ECD0E0D6E0D2EFED70C2EFCD712
:1015D0000B2EFAD7150E0101156F010E166F640E52
:1015E000176F000E186FBBEC03F0020E0B6E070EA8
:1015F0000C6E530E0D6E0D2EFED70C2EFCD70B2E3F
:10160000FAD7050E0101156F010E166F640E176FE4
:10161000000E186FBBEC03F0020E0B6E070E0C6E83
:10162000530E0D6E0D2EFED70C2EFCD70B2EFAD7B7
:10163000F60E0101156F000E166F640E176F000E87
:10164000186FBBEC03F0020E0B6E070E0C6E530E00
:101650000D6E0D2EFED70C2EFCD70B2EFAD7050ED5
:101660000101156F010E166FC80E176F000E186F6F
:10167000BBEC03F0030E0B6E0B0E0C6E0F0E0D6E1B
:101680000D2EFED70C2EFCD70B2EFAD70000000033
:10169000030E0B6E0B0E0C6E0F0E0D6E0D2EFED785
:1016A0000C2EFCD70B2EFAD700000000AE0E010165
:1016B000156F000E166FC80E176F000E186FBBEC7B
:1016C00003F0030E0B6E0B0E0C6E0F0E0D6E0D2E37
:1016D000FED70C2EFCD70B2EFAD700000000CF0E41
:1016E0000101156F000E166F900E176F010E186F27
:1016F000BBEC03F0050E0B6E120E0C6E890E0D6E18
:101700000D2EFED70C2EFCD70B2EFAD700000000B2
:10171000AE0E0101156F000E166F2C0E176F010E25
:10172000186FBBEC03F0040E0B6E0E0E0C6ECD0E9C
:101730000D6E0D2EFED70C2EFCD70B2EFAD7050EF4
:101740000101156F010E166F640E176F000E186FF2
:10175000BBEC03F0020E0B6E070E0C6E530E0D6EFB
:101760000D2EFED70C2EFCD70B2EFAD7DC0E010166
:10177000156F000E166F900E176F010E186FBBECF1
:1017800003F0050E0B6E120E0C6E890E0D6E0D2EF3
:10179000FED70C2EFCD70B2EFAD700000000AE0EA1
:1017A0000101156F000E166F2C0E176F010E186FCA
:1017B000BBEC03F0040E0B6E0E0E0C6ECD0E0D6E18
:1017C0000D2EFED70C2EFCD70B2EFAD7050E0101DD
:1017D000156F010E166F640E176F000E186FBBECBD
:1017E00003F0020E0B6E070E0C6E530E0D6E0D2ED7
:1017F000FED70C2EFCD70B2EFAD7DC0E0101156F8D
:10180000000E166F200E176F030E186FBBEC03F05F
:10181000090E0B6E210E0C6E7D0E0D6E0D2EFED779
:101820000C2EFCD70B2EFAD7110E0B6E3C0E0C6E45
:10183000CB0E0D6E0D2EFED70C2EFCD70B2EFAD72D
:02184000120094
:101842000450000A08E10550000A05E1FF0E006E8F
:101852007F0E016E58D00D6A096A086A01500010A5
:10186200D8B4000C015005180A6E0ABE0D1E0B6A90
:1018720005AE05D0041E051E042AD8B4052A01AE01
:1018820005D0001E011E002AD8B4012A01500510FD
:101892000A6E0ABE10D08FEC03F00BB020D00DAE52
:1018A200000C001E011E002AD8B4012A081E091EBF
:1018B200082AD8B4092A000C05AE0DD001BE07D003
:1018C2000150096E0050086E016A006AE8D7016A89
:1018D200006A002A000C011E001E0B2ADDD7082A0E
:1018E200D8B4092A0450085CD8A4D9D70550095C99
:1018F200D8A4D5D7096A086A002AD8B4012A01AE49
:08190200CED70000FF0C12001B
:08190A00BE6ABD98BD9A1200EF
:1019120010C1D6F011C1D7F012C101F0010E006E54
:10192200015004E000360090FF0FFBD700C0F6F034
:10193200001E00C0E5F0120E01011025E96E000E36
:101942001121EA6E0050EF16120EE95E0050EF16FA
:02195200120081
:10195400969296909598959A959C959E849284904B
:10196400839E839C839A839885EC00F085EC00F039
:1019740085EC00F0838A8388848290EC00F0849262
:1019840085EC00F0848290EC00F0849285EC00F009
:10199400848290EC00F0849285EC00F08398848239
:1019A40090EC00F0849285EC00F0848290EC00F0DE
:1019B4008492839A838E848290EC00F0849285ECE6
:1019C40000F0839E8388848290EC00F08492839854
:1019D400848290EC00F0849285EC00F0848290EC98
:1019E40000F084928388848290EC00F0849285ECE9
:1019F40000F08398848290EC00F08492838E838C30
:101A0400838A8388848290EC00F0849285EC00F0D1
:061A14000001DA8112005E
:0A1A1A009494CA840C0EBD12120051
:101A2400180E0001E16F0B0EE26F100EE36F010E52
:101A3400E46FFF0EEA6FFF0EEB6F000EEC6F000E0B
:101A4400ED6FFF0EE66FFF0EE76F000EE86F000EFE
:101A5400E96FFF0EDD6FFF0EDE6F000EDF6F000E0D
:101A6400E06FAC8A900EAB6E948E949C9EAA03D0C9
:081A7400AECF00F0FBD7120019
:101A7C000900F5CFE6FF0006FBE10106F9E11200D3
:101A8C000001FA6BF7C0E9FFF8C0EAFFEECFF9F0FE
:101A9C00F951000A0FE0F9C010F18CEC05F00001CF
:101AAC00FA2BFA51F725E96E000EF821EA6EEECF0B
:061ABC00F9F0EED7120064
:101AC2003F0E0101006F060E016F5B0E026F4F0E9B
:101AD200036F660E046F6D0E056F7D0E066F070EA7
:101AE200076F7F0E086F670E096F0A6B0B6B0C6B2B
:101AF2000D6B800E956E836A966A846A929A809ABA
:101B0200F7C0E9FFF8C0EAFFEE50020AD8A41BD1E1
:101B12000001F96BF9510108D8A0FAD00A0E046E3F
:101B2200000E056E0AC100F00BC101F089DE08C08B
:101B320000F009C001F000C00CF101C00DF1640E0B
:101B4200046E000E056E0AC100F00BC101F078DED2
:101B520008C000F009C001F000C0FEF001C0FFF0B3
:101B62000A0E046E000E056E6BDE00C00EF101C09F
:101B72000FF10A0E046E000E056EFEC000F0FFC0EB
:101B820001F05EDE08C000F009C001F00A0E046E2A
:101B9200000E056E55DE005001010E5D0001FE6F64
:101BA200015001010F590001FF6FE80E046E030E90
:101BB200056E0AC100F00BC101F042DE08C000F060
:101BC20009C001F000C0FCF001C0FDF0640E046E1B
:101BD200000E056E35DE00C00EF101C00FF1640E7D
:101BE200046E000E056EFCC000F0FDC001F028DEA0
:101BF20008C000F009C001F0640E046E000E056E0C
:101C02001FDE005001010E5D0001FC6F0150010159
:101C12000F590001FD6FE80E046E030E056E0AC136
:101C220000F00BC101F00CDE00C00EF101C00FF19B
:101C3200E80E046E030E056EFAC000F0FBC001F060
:101C4200FFDD08C000F009C001F0E80E046E030ECB
:101C5200056EF6DD005001010E5D0001FA6F0150C4
:101C620001010F590001FB6F000E01010C25E96E05
:101C7200010E0D21EA6EEECF83FF808A0D0E0C6EEF
:101C8200FB0E0D6E0D2EFED70C2EFCD700000000B1
:101C9200809A000E0001FE25E96E010EFF21EA6E18
:101CA200EECF83FF84840D0E0C6EFB0E0D6E0D2E97
:101CB200FED70C2EFCD7000000008494000EFC25F9
:101CC200E96E010EFD21EA6EEECF83FF84820D0ED6
:101CD2000C6EFB0E0D6E0D2EFED70C2EFCD70000E7
:101CE20000008492000EFA25E96E010EFB21EA6ED5
:101CF200EECF83FF84800D0E0C6EFB0E0D6E0D2E4B
:101D0200FED70C2EFCD7000000008490F92B02D7DE
:101D120001010B51270A02E1100E0A1911E10A6BA7
:101D22000B6B0B0E0B6E260E0C6E5D0E0D6E0D2EDA
:101D3200FED70C2EFCD70B2EFAD700000000836AC8
:081D42000A4B0B2BDDD6120049
:101D4A001A0E0C6EF80E0D6E0D2EFED70C2EFCD749
:101D5A000000956A836AF7C0E9FFF8C0EAFFEE500F
:101D6A00010A21E1550E836E060E0B6E130E0C6EE0
:101D7A00AD0E0D6E0D2EFED70C2EFCD70B2EFAD7FC
:101D8A0000000000AA0E836E060E0B6E130E0C6E78
:101D9A00AD0E0D6E0D2EFED70C2EFCD70B2EFAD7DC
:081DAA0000000000D8D7120070
:101DB2009494829494928292F7C0E9FFF8C0EAFF69
:0C1DC200EE50040A02E18284F7D7120000
:101DCE000F0EC16EC0DD010E0101246F93EC00F009
:101DDE000C0E0101246F93EC00F0BF0E0101106F89
:101DEE00000E116FBA0E126F000E136F93EC05F00A
:101DFE00F7C0E9FFF8C0EAFFEE50090A34E100012E
:101E0E00F96B060EF95D15E2180E0101246F93ECC5
:101E1E0000F0060E0B6E130E0C6EAD0E0D6E0D2E2B
:101E2E00FED70C2EFCD70B2EFAD700000000F92B94
:101E3E00E8D7F96B060EF95D15E21C0E0101246F51
:101E4E0093EC00F0060E0B6E130E0C6EAD0E0D6EB7
:101E5E000D2EFED70C2EFCD70B2EFAD7000000004D
:081E6E00F92BE8D7C5D71200DB
:101E76000F0EC16E820E0101106F0F0E116F020E52
:0A1E8600126F44DDD0EC05F01200ED
:101E90009492829294948294F7C0E9FFF8C0EAFF8A
:0C1EA000EE50050A02E18282F7D7120022
:101EAC00060E0001F96F710EFA6F730EFB6F770E51
:101EBC00FC6F800E956E836A966A846A929A809AF9
:101ECC00F7C0E9FFF8C0EAFFEE50080AD8A48DD09D
:101EDC00016A0150C7083AE3FCC083FF808A0D0EEB
:101EEC000C6EFB0E0D6E0D2EFED70C2EFCD70000CB
:101EFC000000809AFBC083FF84840D0E0C6EFB0ED9
:101F0C000D6E0D2EFED70C2EFCD700000000849415
:101F1C00FAC083FF84820D0E0C6EFB0E0D6E0D2E1F
:101F2C00FED70C2EFCD7000000008492F9C083FF72
:101F3C0084800D0E0C6EFB0E0D6E0D2EFED70C2E2E
:101F4C00FCD7000000008490012AC3D7016A01501D
:101F5C0003084AE3F9C083FF8480060E0B6E130E50
:101F6C000C6EAD0E0D6E0D2EFED70C2EFCD70B2E5F
:101F7C00FAD7000000008490FAC083FF8482060E1A
:101F8C000B6E130E0C6EAD0E0D6E0D2EFED70C2EB1
:101F9C00FCD70B2EFAD7000000008492FBC083FF05
:101FAC008484060E0B6E130E0C6EAD0E0D6E0D2E84
:101FBC00FED70C2EFCD70B2EFAD700000000849411
:101FCC00FCC083FF808A060E0B6E130E0C6EAD0EDA
:101FDC000D6E0D2EFED70C2EFCD70B2EFAD7000053
:0C1FEC000000809A012AB3D76BD71200C6
:101FF8000D0EC26E0B0EC16E928693808180938205
:102008008182A4DC0C0E0101246F93EC00F0010E18
:102018000101246F93EC00F02B0ED86F000ED96FDE
:10202800010E0101156F030E166FD8C017F1D9C044
:1020380018F127EC03F0F7C0E9FFF8C0EAFFEE500B
:0C204800030A03E187EC04F0F6D7120055
:102054000F0EC16E7DDC010E0101246F93EC00F0C4
:102064000C0E0101246F93EC00F0370E0101106F88
:10207400000E116F1B0E126F000E136F93EC05F020
:10208400F7C0E9FFF8C0EAFFEE500A0A34E10001A4
:10209400F96B060EF95D15E2180E0101246F93EC3D
:1020A40000F0060E0B6E130E0C6EAD0E0D6E0D2EA3
:1020B400FED70C2EFCD70B2EFAD700000000F92B0C
:1020C400E8D7F96B060EF95D15E21C0E0101246FC9
:1020D40093EC00F0060E0B6E130E0C6EAD0E0D6E2F
:1020E4000D2EFED70C2EFCD70B2EFAD700000000C5
:0820F400F92BE8D7C5D7120053
:1020FC000F0EC16E949493809382CA80CA827C0E18
:10210C00CB6E85EC0CF0BD84BD8681DCBE6AF7C05D
:10211C00E9FFF8C0EAFFEE50070A26E181B011D0C2
:10212C00030E0B6E080E0C6E770E0D6E0D2EFED779
:10213C000C2EFCD70B2EFAD7BE50010F006E00C030
:10214C00BEFF81B210D0030E0B6E080E0C6E770E14
:10215C000D6E0D2EFED70C2EFCD70B2EFAD7BE040F
:0A216C00006E00C0BEFFD3D71200C2
:10217600F9EC11F00F0EC16EF28EF28CAC8AAC9CAB
:10218600AC98AC82AC84B886100EAF6EB06AAB8EDB
:10219600AB88AB9C9E9A9D8AB886B06A100EAF6ECD
:1021A600AC843DDC430E0001F76F000EF86F6BDC6C
:1021B600540EF76F000EF86F66DC680EF76F000EB0
:1021C600F86F61DC7B0EF76F000EF86F5CDCAA0E11
:1021D600F76F000EF86F57DC8B0EF76F000EF86F77
:1021E60052DC980EF76F000EF86F4DDC200EF76F7D
:1021F600000EF86F48DCDC6BDA930001C951010A66
:102206000CE1DC2B010EDC15016E0150000A05E025
:10221600C90EF76F000EF86F95DD0001C951020A6D
:102226000CE1F32B010EF315016E0150000A05E0D7
:10223600C90EF76F000EF86F41DC0001C951030AA1
:102246000CE1F52B010EF515016E0150000A05E0B3
:10225600C90EF76F000EF86FCCDEC951040A0CE107
:10226600F42B010EF415016E0150000A05E0C90EAB
:10227600F76F000EF86F9ADD0001C951050A0CE1EF
:10228600EF2B010EEF15016E0150000A05E0C90E95
:10229600F76F000EF86FF9DD0001C951060A08E173
:1022A600EE2B010EEE15016E0150000A01E0E0DD95
:1022B6000001C951070A0CE1F12B010EF115016E5F
:1022C6000150000A05E0C90EF76F000EF86F13DF24
:1022D6000001C951080A0CE1F02B010EF015016E40
:1022E6000150000A05E0C90EF76F000EF86FDBDD3E
:1022F600C951090A0CE1DB2B010EDB15016E0150F9
:10230600000A05E0C90EF76F000EF86F5DDD0001EB
:10231600C9510A0A0CE17A2B010E7A15016E015099
:10232600000A05E0C90EF76F000EF86F90DE65D75C
:02233600FFD7CF
:1023F20010EE19F0B10E006E010E016E380EF66E7F
:0E240200230EF76E000EF86E3EEC0DF0120089
:02233800200083
:05233A002D5F5F2D0086
:0B233F00382D49465041200D200A00B7
:0C234A0054454D5045524154555241003D
:0C2356005463686175204D756E646F0063
:1023620031202D5049534341204C4544200D200A31
:01237200006A
:10237300322D444953504C4159203720534547206F
:042383000D200A001F
:10238700332D54454D5045524154555241200D204F
:022397000A003A
:012399000043
:10239A00342D56454E544F494E4841200D200A00CF
:0D23AA00362D42555A5A4552200D200A008A
:1023B700372D424F54414F2050574D200D200A00D2
:0223C7004300D1
:1023C900352D415155454345444F52200D200A00B2
:0523D9005E5F5F5E0085
:0A23DE004F6C61204D756E646F00B6
:0123E80000F4
:0823E9000609060000000000D7
:020000040030CA
:0E000000000C1F1EFF8381FF0FC00FE00F409A
:00000001FF
